:020000040800F2
:10000000C0320020D1630008BD600008BF60000856
:10001000F1600008F3600008F560000800000000CF
:10002000000000000000000000000000F760000871
:10003000F960000800000000B3280008AB260008A3
:1000400015640008196400081D6400082164000894
:1000500025640008296400082D6400083164000844
:1000600035640008396400083D64000841640008F4
:1000700045640008496400084D64000851640008A4
:1000800055640008596400085D6400086164000854
:1000900065640008696400086D6400087164000804
:1000A00075640008796400087D64000881640008B4
:1000B000FF43000885640008896400088D64000817
:1000C0009164000895640008996400089D64000824
:1000D000A164000883580008A5640008A96400080A
:1000E000AF460008AD640008B16400082DE9F04394
:1000F0009FB000BF66A6269CDFF8E48A02918DF8C7
:100100003B4000210B914FF0FF37044691461D46BE
:100110000AE019F8011B0298A0470028029000F09D
:10012000A4800B98401C0B9099F8000050B1252832
:10013000EFD10020002105900691079008910990C9
:100140000A9103E00B98A7E041F0010119F8010FB3
:100150002028F9D023280CD02B2804D02D2805D016
:10016000302809D083E041F00201EFE741F00401BB
:10017000ECE741F00801E9E741F01001E6E7002073
:100180000D900AE00D98404505DA00EB800302EB84
:100190004302303A0D9209F1010999F80020A2F1C9
:1001A00030000A28EED399F800002E2818BF0C97CB
:1001B00026D119F8010F2A2808D12868286009F1EA
:1001C000010950F8042B28600C9219E02D280CBF6F
:1001D00019F8010B002000220C920BE040B90C9A98
:1001E000424505DA02EB820203EB4203303B0C93FB
:1001F00009F1010999F80030A3F130020A2AEDD380
:10020000ADF83810304699F8001000F08DFE08B1B6
:1002100019F8010B8DF83A009DF83A00682804BFE0
:1002200099F80010682903D162208DF83A0008E09F
:100230006C2804BF99F800006C2804D171218DF856
:100240003A1009F1010910A804902A4619F8013B57
:100250006946204600F060F838B910AA6946204681
:1002600000F08CF900287FF55FAF384614E02A28AB
:1002700085D12A682A6052F8040B2A6000280D9064
:1002800003D540420D9041F0040109F101098AE7CC
:10029000686A6C747A4C00001FB0BDE8F083622875
:1002A00020D0682811D06A2803D06C2827D0712864
:1002B00025D10868C01D20F007000860D0E90023A0
:1002C00008300860194610467047002A0A680A601C
:1002D000106803D0121D0A6000B217E0121D0A60F8
:1002E00080B217E0002A0A680A60106803D0121D65
:1002F0000A6040B20AE0121D0A60C0B20AE0002A99
:100300000A680A60106803D0121D0A60C11770479E
:10031000121D0A600021704770B51C460D46B4F1ED
:1003200025002E69114600F017811C386AD0001F85
:10033000022867D9133843D0093863D0801E16D0FD
:10034000401E1ED0401E02285CD9001F19D0401F3D
:1003500000F08380401E33D0401E00F0CD80C01ED0
:1003600000F0D880801E2BD0C01E29D0FAE068692A
:10037000421C6A610A680A6052F8043B0A603354FE
:10038000FAE095F83A000122FFF789FFC5E900017C
:100390000023994204DA6869411C69612D210DE04E
:1003A000288F810704D56869411C69612B2105E00C
:1003B000C00722D56869411C6961202131541CE0C5
:1003C00095F83A000022FFF76AFFC5E9000195F8A9
:1003D0003800010711D5D5E900230020834208BF6A
:1003E00082420AD044F02000782806D16869302182
:1003F0003154401C411C69613454214668693044C1
:10040000E86083E00868C01D20F007000860D0E9BC
:10041000002308300860C5E90023D5E90001C80FB2
:1004200004D06869411C69612D210DE0288F810786
:1004300004D56869411C69612B2105E0C00704D51A
:100440006869411C69612021315468693044E86061
:100450002146284600F0C4F98EE005F13A025078B2
:1004600020B14FF0FF340FF648205EE0107862288C
:1004700008D0682824D06A2812D06C282ED0712881
:100480000ED02BE00A680A6052F8040B0A6020B90B
:100490004FF0FF340FF6302047E0E96A01706BE05F
:1004A0000A680A6052F8040B0A6020B94FF0FF3462
:1004B0000FF6142039E0EA6AD317C0E900235BE0A5
:1004C0000A680A6052F8040B0A6020B94FF0FF3442
:1004D0000FF6F41029E0E96A01804DE00A680A602D
:1004E00052F8040B0A6020B94FF0FF340FF6D81011
:1004F0001BE0E96A01603FE00A680A6052F8040BF9
:100500000A600021C5E90001EE607821284600F06C
:10051000BBF831E00868086050F8044B0860EC60F4
:100520003CB94FF0FF340FF6B81000F009FD201A67
:1005300070BD2E6B002E04D5204600F021FD044630
:1005400008E032460021204600F036FD002814BFA6
:10055000041B3446AC610FE06869411C69612521C8
:10056000315409E06969481C6861252272542100F0
:1005700002D0411C69613454002070BD2DE9FC415A
:100580000F460646796B7869BC6A091A386A091AF7
:10059000B869091A786A091AF869091A97F83800C7
:1005A0000C1B410790460FD42021002C8DF8001021
:1005B0000ADD254601236A463946304600F060FCD4
:1005C00000285DD16D1EF5D17B6942463946304623
:1005D00000F056FC002853D130208DF800003D6A11
:1005E000002D09DD01236A463946304600F048FCFB
:1005F000002845D16D1EF5D1BB69FA6839463046F1
:1006000000F03EFC00283BD130208DF800007D6AD0
:10061000002D08DD01236A463946304600F030FCE3
:1006200070BB6D1EF6D1F868B969FB69421839468E
:10063000304600F025FC18BB30208DF80000BD6A64
:10064000002D08DD01236A463946304600F018FCCB
:10065000B0B96D1EF6D197F8380041070DD52021AD
:10066000002C8DF8001008DD01236A46394630461B
:1006700000F006FC20B9641EF6D10020BDE8F6812A
:100680004FF0FF30BDE8F6812DE9FC4707468A466A
:100690003E69BAF16F0F08BF082405D04AF0200167
:1006A000782914BF0A2410243C25D7E90023BAF185
:1006B000640F18BFBAF1690F9046994606D1002120
:1006C0008B4203DAD8F1000869EB49090020814523
:1006D00008BF80451FD1386BE8B9082C4CD197F87A
:1006E0003800010748D530203B2586F83B0043E021
:1006F00000280ED597F8380000F01400102808D113
:100700007A6B7869121A386A121A511A0029C8BF0E
:100710003962BDE8F3878DF800A04046494622467D
:10072000E31700F075FC3032D0B26D1E3A28019507
:1007300004DB9DF80000A0F151018A187255404673
:1007400049462246E31700F063FC804689460020B4
:10075000814508BF804503D0F86871198842DCD311
:10076000082C09D197F83800010705D5715D3029AB
:1007700002D06D1E30207055C5F13C01B961701971
:10078000F860386B8142B3DA411A39624FF6EF7084
:10079000398F01403987BDE8F3872DE9D0430646FC
:1007A0000F4614464FF00008DFF8389412E0E007D7
:1007B00007D542464B463046394600F041FD0646D5
:1007C0000F464046494642464B4600F039FD64100C
:1007D00080468946002CEAD130463946BDE8D083B0
:1007E0002DE9F34F054641F020048DB0D5E900898D
:1007F000612C02AE09D0286B002848BF062003D424
:1008000008BF672C01D101202863D5E900235800D7
:100810004015401C0ED119030CD00320A8619DF88F
:10082000380061381A2802D20FF2D06111E00FF2BD
:10083000D0610EE058004015401C0FD119030DD1B6
:100840000320A8619DF8380061381A2814D30FF2EC
:10085000B861E868032200F0C5FDD3E1194621F034
:100860000043B3F5801F10460DD20027BB4208BFDE
:10087000BA42019703D111E00FF28861E9E701AABA
:1008800000F004FE0AE0DFF8607307EB1352DFF8B4
:100890005C3301921940DFF858331943C5E9000170
:1008A000612C0ED1E86830210170811CE9609DF84F
:1008B000381061290CBF7821582141706869801C6B
:1008C0006861D5E900AB2BF0004300202AF000025C
:1008D000834204BF8242002300F05A81612C40F021
:1008E000A980286B00284CBF2120401C0090404666
:1008F000009F7F1C49460022002300F0FFFDD946DF
:1009000001988DF8082038BF89F00049001F019038
:10091000002FD0460DF1090040F3498140F2FF71EC
:10092000DFF8D0B20C91064640464946002200232B
:1009300000F0FCFD80F03A814800400D00F11C02FF
:1009400010D0002A0EDD0C98824205DB09F0004031
:1009500040EA0B01002013E0A448084040EA02519D
:1009600040460DE029F00043002028F000028342B9
:1009700008BF82420FBF40461C22404600F0EEFDF9
:100980008046894600F088FEFF1F002F044609DDDF
:1009900000F0A0FE02460B464046494600F0ACFE81
:1009A00080468946F01D072104E004F00F0200F89C
:1009B000012D2411002C01DD491EF6D5491E5CBF16
:1009C000002200F8012DF9D5ECE00020194602AA1A
:1009D0000A4400E05B1E12F80149491E8442F9D026
:1009E0000F2804D10DF10900425C521C4254002929
:1009F00004D50198001D02AE5B1C0190591E12D453
:100A00009DF838007218147804F130085FFA88F401
:100A1000392CC4BFA0F13A04A044491E02F8018950
:100A2000F1D58DF83800286B002840F1B080591EB0
:100A30002963ACE0404649460022002300F05EFDF9
:100A4000019938BF89F0004947F2975041436A4AFB
:100A500091FBF2F20192D2F1070204DD40464946D1
:100A6000FFF79BFE0AE0524200206449FFF795FE23
:100A700002460B464046494600F0B0FE8046662CD2
:100A8000286BDFF87CB106BF019F0A3706273F18A5
:100A9000142FC8BF142730208DF8080089460DF1A7
:100AA000090000E03046002F34DD06464046494646
:100AB00000F0B8FF01460A4606F1080304200A26A2
:100AC000B2FBF6F606EB860EA2EB4E02303203F8CE
:100AD000012C0A22B6FBF2F202EB820EA6EB4E06C6
:100AE0003036401E03F8026DE9D1083F002F03F1B4
:100AF0000806D7DD084600F0A9FF02460B4640462F
:100B0000494600F0F9FD00225B4600F099FB804663
:100B10008946CBE70DF10901401A0DF1090604E001
:100B20000199491E401E0191761C31783029F7D079
:100B3000662C02D10199491C03E0652C0CBF0121F0
:100B400000212B6BCB189842B8BF431E002B1ED43C
:100B5000834204DAF05C3528A8BF392000DA30205F
:100B60001946721E02EB010800E05B1E18F801999D
:100B7000491E8145F9D0392802D1705C401C70545F
:100B8000002904D50198401C16465B1C0190019871
:100B900000B200901BB29DF838103246284600F093
:100BA00035F82FE0C61D002F3FF7BEAE30460DF1E1
:100BB0000901401A009903468842C8BF0B46002B22
:100BC0000DF109063FF52FAF8342BFF6FEAE0DF1E2
:100BD0000900C05C07287FF7F8AE0F20F6E600009A
:100BE000CBCCCC0C0000244002FCFFFFFFFF0F80A9
:100BF0000000E03F0000F07FA08601000000F03F11
:100C000084D797410FB0BDE8F08F00002DE9F84779
:100C100083B006468A461746984600F025FFB8F18D
:100C2000000F406A356B90F8009002DC4FF001082D
:100C3000B6A7BDF930404AF02000662808BF641C02
:100C400015D0672840F0848014F1040FC0F286802C
:100C5000AC4280F2838096F83800641C010702D40D
:100C6000A845B8BF454620B22D1A48BF00250FFA47
:100C700084FAF068B169BAF1000F25DC4A1C302310
:100C80004354002D03DC96F83800010703D5F068C3
:100C900000F80290521C15EB0A0FB8BF6C4220B24C
:100CA000441941424445B8BFA046B26171620FFA8F
:100CB00088F5F561F068B3692A463946184400F0B2
:100CC00091FB641BB462C4E022B29045084417DA79
:100CD0004246394600F086FBB0694044B061AAEB59
:100CE0000801002D716203DC96F838100A0705D55B
:100CF000F16801F80090F069401CF061B562A8E06D
:100D0000394600F06FFBB069002D5044A8EB040891
:100D100003DC96F838100A0703D5F16801F8009053
:100D2000401CB0610FFA88F08542F068B369B8BF23
:100D3000A8460FFA88F207EB0A01184400F052FBAC
:100D4000B0690FFA88F10844B061681A706280E0F7
:100D5000BAF1610F14D14FF0700A16E0A84504DA19
:100D600096F838100A0758BF45466D1E48BF002543
:100D7000BAF1670F14BF4FF0450A4FF0650A04E05F
:100D8000BAF1410F08BF4FF0500AB169F368481C2F
:100D9000B061002D17F8012B5A5403DC96F8381077
:100DA0000A071BD5F168431CB36101F80090002DC0
:100DB00014DDA8F101080FFA88F08542F068B8BF89
:100DC000A8460FFA88F23946184400F00BFBB069C8
:100DD0000FFA88F108446D1AB0617562F068B16964
:100DE0000844002C80F800A003D42B214170811C02
:100DF00003E02D2141706442811C00206A460AE014
:100E000023460A2493FBF4F404EB8405A3EB450387
:100E100002F8013B401C24B2002CF1DC012806DC66
:100E20004AF02002652A04BF302201F8012B48B99C
:100E3000302001F8010B07E0401E1DF80020303281
:100E400001F8012B0028F7DCF068B2691044091A98
:100E5000F16196F8380000F0140010280DD1716986
:100E6000B0694118706A4118F0694118B06A4118B8
:100E7000706B8142BCBF411A316204B0BDE8F0879B
:100E8000F8B505460E4617461C46002074B117F803
:100E9000011BB068A847B06030B1F06A401CF06236
:100EA0000020641EF3D1F2BD4FF0FF30F2BD000010
:100EB0007072696E74665F733A20256E2064697380
:100EC000616C6C6F776564007072696E74663A204D
:100ED00062616420256E20617267756D656E7400B5
:100EE0007072696E74665F733A2062616420257364
:100EF00020617267756D656E740000006E616E0032
:100F00004E414E00696E6600494E460030008268D0
:100F1000521C8260426832B10268531C0360117037
:100F20004168491E416070470278C9B28A421AB1CD
:100F30001CBF10F8012FF9E718BF0020704701000F
:100F400080B500B906A005490B681BB1222200211B
:100F5000984701E000F08CFD222002BDA42A002069
:100F6000636F6E73747261696E742068616E646C15
:100F700065723A20626164206D6573736167650014
:100F800000F10103810704D010F8011B89B181072A
:100F9000FAD10268B2F10131914311F0803F04BFF0
:100FA00050F8042FF6E710F8011B11B110F8011BDF
:100FB000FBE7C01A70470100C9B2830706D0521E72
:100FC00022D310F8013B9942F7D11FE0083A13D31E
:100FD00002F1040241EA012141EA014150F8043BD7
:100FE000121F21BF4B40A3F1013C2CEA030C1CF063
:100FF000803FF3D0C9B2001F083210F8013B521EE7
:1010000028BF91EA030FF8D818BF0120401E70478F
:10101000B3BBD9B1B2F5803F7DD2022A1ED98C462E
:10102000B1FBF2F102FB11C31B0443EA1043B3FB13
:10103000F2FC02FB1C3380B240EA0343B3FBF2F044
:1010400002FB103240EA0C4000237047022A05D907
:101050008446B0FBF2F002FB10C270474AB105D1E2
:1010600000F0010249085FEA3000704700220023C7
:10107000704700F001BD0B00020000210020704706
:10108000904271EB030CF6D3B3F5803F2FD2F0B54D
:10109000B3FA83F7B1FA81F4A7F10F0E3D1B534069
:1010A000CEF1200602FA0EF2F3415340B5F10F07DC
:1010B00046D80F3C2C444140C4F12006A040F141E9
:1010C0004140B1FBF3F603FB1611A2FB0645001BE2
:1010D000A94102D2761E8018594180EA010221FA04
:1010E0000EF362FA0EF200215A403046F0BD30B4E1
:1010F000B1FBF3FC03FB1C11A2FB0C45001BA94137
:1011000003D2ACF1010C8018594130BC02460B46A9
:10111000604600217047B2F1807F65D3F0B5B2FA26
:1011200082F7B1FA81F4C7F10F063D1B22FA06F3EC
:1011300007F1110EF24120355A40B5F10F07B8D929
:101140004140C4F12006A040F1414140B1FBF3FC15
:1011500003FB1C11A2FB0C45001BA94103D2BCF1EF
:10116000010C801859410F2F12D30F3FC90341EAD8
:101170005041B1FBF3F603FB1611A2FB0645D4EB7D
:10118000C030A94102D2761E8018594146EACC3CB3
:1011900007B34140C7F12006B840F1414140B1FBDF
:1011A000F3F603FB1611A2FB0645001BA94102D270
:1011B000761E8018594180EA010221FA0EF3C7F128
:1011C000200462FA0EF20CFA07F05A402CFA04F1ED
:1011D0003043F0BD80EA010221FA0EF3002162FAE9
:1011E0000EF260465A40F0BD8C46B1FBF2F102FBB4
:1011F00011C31B0243EA1063B3FBF2FC02FB1C3376
:101200001B024CEA002043EA1063B3FBF2FC02FB32
:101210001C331B024CEA002043EA1063B3FBF2FCD0
:1012200002FB1C331B024CEA002043EA1063B3FBB1
:10123000F2FC02FB1C324CEA0020002370470A003B
:10124000B0B581EA030C0CF0004C40F2FF7515EAD2
:1012500011541DBF15EA1357AC42AF4239E0E419EF
:1012600023EA455343F48013C90241F0004141EAA7
:10127000505EC7021100A7FB020200284FF00000D9
:10128000EEFB01204FF00001E3FB072118BF42F005
:101290000102401800214941E3FB0E01A4F58064DE
:1012A0000F0302D252004041494154F101046CDD68
:1012B000470872F1004250F1000051EB0451A1F5D2
:1012C00080115CBF41EA0C01B0BD4CEA0551002021
:1012D000B0BD05EA1357AC4214BFAF4241E050EA3B
:1012E000410E1CBF52EA430E02E061460020B0BD31
:1012F00024423C441BD15FEA070EF6D0090302BF2B
:1013000001460020AEF1140EB1FA81F7AEEB0704EE
:1013100001FA07FE0C37C7F1200100FA07F7C840B1
:101320004EEA000E23EA455343F48013A2E733F05C
:101330000043B3FA83F704BFB2FA82FE77440B3F4F
:10134000E41BB7F1200E2FBF02FA0EF3BB40C7F12A
:10135000200E22FA0EFE38BF43EA0E03BA40641C88
:1013600082E750EA410E14BF52EA430E6FF00001CB
:101370004FF4001717EB430F8ABF194617EB410FC5
:10138000B5E74CEA05510020B0BDD4F10104B4F139
:1013900020070FDAC4F12007520828BF42F00102EB
:1013A00010FA07F501FA07F7E1BF2A43E040384396
:1013B000E1400FE0352C98DCC7F1200452EA4002EE
:1013C00020FA07F218BF42F0010231FA07F0A140FB
:1013D0000A43002172F1004250F1000051EB0C0170
:1013E000B0BD010062B38B0708D0521E11F8013B5B
:1013F00000F8013B00F024808B07F6D1830740F012
:10140000208000BF103A07D330B4B1E83810103A4A
:10141000A0E83810F9D230BC530724BFB1E8081057
:10142000A0E8081044BF51F8043B40F8043BD20741
:1014300024BF31F8022B20F8022B44BF0B78037035
:101440007047121F17D35B0009D151F8043B20F8F5
:10145000023B1B0C121F20F8023BF6D20BE051F8A6
:10146000043B00F8013B1B0A20F8023B1B0C121F37
:1014700000F8013BF3D238BF121D521E24BF11F8F1
:10148000013B00F8013BF8D87047180010B514462E
:1014900000F002F8226010BDC1F30A5343B14A00C4
:1014A00012F5001F28D2A3F2FE32A1EB02517047C1
:1014B00050EA410C20D001F0004C31EA0C01B1FAA5
:1014C00081F204BFB0FA80F3D2180B3AB2F12003D4
:1014D0002CBF00FA03F1914041EA0C013EBFC2F17A
:1014E000200C20FA0CF319439040524240F2FD3395
:1014F000D21A01EB03517047002270474FF4001CD1
:101500001CEB410F94BF1CEB430F09E041EA030CB5
:1015100050EA4C0C52EA0C0C03D2994208BF90429C
:10152000704714BF8B4282427047F0004FF4001C9A
:101530001CEB410F94BF1CEB430F09E041EA030C85
:1015400050EA4C0C52EA0C0C03D28B4208BF824288
:10155000704714BF9942904270470100124254D420
:1015600040F2FF7C1CEA11530FD0634531D09B1829
:1015700063453CBF01EB0251704701F0004141EA75
:101580000C510020AFF30080704750EA410320D097
:1015900001F0004C91EA0C011CD0B1FA81F30B3B35
:1015A0009A420DD9D21A994051EA0C01C3F1200C8C
:1015B00020FA0CFC61449840531C40F2FF7CD7E7B2
:1015C000914041EA0C01C2F1200C20FA0CF31943BE
:1015D00090407047B0FA80F31533202BE0D3202AD7
:1015E000EED3203A203B9A4209D9D21A00FA03F1ED
:1015F00041EA0C010020531C40F2FF7CB8E700FADE
:1016000002F141EA0C0100207047524240F2FF7C97
:101610001CEA11530DD06345DBD0B2EB030C3CBF89
:10162000A1EB025170470CF1010221EA035141F490
:10163000801150EA410CCCD001F0004C352A27DC57
:1016400030B481EA0C01B2F1200309DAC2F12003BF
:10165000044601FA03F5D0402843D1409C400CE0F9
:10166000C3F12002450020FA03F418BF44F001043E
:1016700021FA03F091400C43002174F1004550F130
:10168000000051EB0C01244230BC7FF47BAF70476B
:101690006146002076E70000C1F30A5340F2FE32B3
:1016A0009B1A14DDD3F120034FEAE17208DDC90271
:1016B00041EA505141F00040D840801850407047F6
:1016C00003F2E13010B1D24382F0004070470020B5
:1016D00070470000C11768B14840401AB0FA80F264
:1016E0009040D21CC907C2F5846241EA025202EB63
:1016F000D02140057047000070B44FF0004591EADA
:10170000030F40F1BB816B40841A71EB030603D2D7
:10171000001BB141121973414FF4001C1CEB410F27
:1017200034BF7CEB430442E00C0DA4EB1356352E82
:101730004FDC45EAC323DB0A45EAC121C912B6F1F1
:1017400020050DDD63FA05F6EB4086EA030512423B
:1017500018BF45F00105C01851F100010CD213E08B
:1017600062FA06F5F2405540F3415A40B340F34067
:101770005A408018594107D349085FEA30005FEAB0
:10178000350528BF45F0010501F58011420875F1C6
:10179000004250F1000041EB04514E0016F5001FCD
:1017A00070BC38BF70470020090D090570471CEB5D
:1017B000410F10D252EA43060BD0BCEB410F05D8C3
:1017C0000C0DAB43661E342EB6DD02E0AB43801831
:1017D000594170BC704770BC70470000F0B540F2D2
:1017E000FF7581EA030C0CF0004C15EA11541DBF83
:1017F00015EA1357AC42AF42E5E0BC41C1F3130117
:10180000C3F31303801A994143F4801304D2641E76
:101810004000494180185941C90241EA5051B1FB89
:10182000F3F603FB1611A2FB0675D7EBC020A94106
:1018300002D2761E80185941C90241EA5051B1FBCB
:10184000F3FE03FB1E11A2FB0E75D7EBC020A941CE
:1018500003D2AEF1010E80185941890241EA90513C
:10186000760546EA8E2EB1FBF3F603FB1611A2FBBA
:101870000675D7EB8020A94102D2761E8018594107
:10188000C90241EA50514EEA060EB1FBF3F603FBE2
:101890001611A2FB0675D7EBC020A94102D2761E15
:1018A00080185941C90241EA5051B1FBF3F703FBDB
:1018B0001711A2FB0735D3EBC020A94167F1000740
:1018C0000CBF004247F0010766F3D5274FEA1E31EF
:1018D000B80814F5806412DDBD0775F1004250EBC5
:1018E0000E5051EB045111F5801F5CBF41EA0C0111
:1018F000F0BD4CF07F6141F0E0410020F0BDBD073C
:101900006D0840EA0E5041F48011D4F10104B4F1A5
:1019100020060ADAC4F120060200E04001FA06F3CC
:10192000E1401843B24015430EE0342C13DCC6F1FD
:10193000200445EA40056D0820FA06F2154321FA15
:1019400006F0A1400D43002175F1004250F1000066
:1019500051EB0C01F0BD00205FEA0C01F0BDCFB9E6
:1019600092185B41B3FA83F704BFB2FA82F6BF194B
:101970000B3FB7F120062FBF02FA06F3BB40C7F1B9
:10198000200622FA06F638BF3343BA401CB1E419E8
:10199000641E33E77F4231F00041B1FA81F404BFA5
:1019A000B0FA80F6A4190B3CB4F120062FBF00FA60
:1019B00006F1A140C4F1200620FA06F638BF3143F3
:1019C000A0403C1B1AE7AC421ABF05EA1357AF42CE
:1019D00012E050EA41061CBF52EA4306BFE750EA54
:1019E0004107304661461CBF41EA0551F0BD52EA4D
:1019F000430C08BFC143F0BD00204FF4001616EBA6
:101A0000410F98BF16EB430F08BF16EB410F24BFE1
:101A1000C14305E016EB430F0CBF61464CEA05518C
:101A2000F0BD0500400D491840EA81200CD2490D57
:101A3000A1F58061491C40F0004005DBD1F11F0198
:101A400054BFC840C017704700207047014648B1D6
:101A5000B0FA80F18840C91CC1F58461090501EB29
:101A6000D021400570470100004870476000002009
:101A7000012000F0B7B83F0070470100841A71EBF5
:101A8000030604D26E40001BB141121973414FF49A
:101A9000001C1CEB410F34BF7CEB430682E00C0DB5
:101AA000A4EB1356362E7BDC012E45EAC32341DC22
:101AB00043EA525312BFD20292025B08240545EA60
:101AC000C12141EA5051D2EBC020994125D407D120
:101AD000B0FA80F610FA06F162D00020203608E055
:101AE000B1FA81F6B140C6F1200220FA02F21143A8
:101AF000B0404FEAF474B4EB465434F001064FEAB8
:101B000074040AD8D6F50016760D04F00044F040AF
:101B100061FA06F25040F1404840C00A40EA4150A4
:101B200021F0004128BF5FEA500550F1000044EB6E
:101B3000D12135E0DB0A45EAC121C90AB6F1200509
:101B40000EDD42EA0242120CC5F1200603FA06F647
:101B5000EB4042EA06056D42984161F100010DE05B
:101B600062FA06F5F240554063FA06FC82EA0C027E
:101B7000F3405A406D42904161EB030111F4801F24
:101B800005D1641E620502D06D004041494121F437
:101B90008011430875F1004350F1000041EB0451FE
:101BA00070BC70471CEB410F15D223F0004352EA82
:101BB00043060BD04FEA4C0CBCEB410F04D80C0D84
:101BC000661E342EB7DDEBE7801A994150EA4106D4
:101BD00008BF0021E4E708BF1CEB430F28BF6FF0EC
:101BE0000001DDE780B5AFF30080024A1100182044
:101BF000ABBEFBE72600020080B500F0DDFC00F084
:101C00005DFA00F086FA00F0E2FA00F01DFA00F04A
:101C1000A2FA00F0BEFA00F0DDFC00F075FD01BD97
:101C2000DFF82009007801280BD1DFF8E4060078FE
:101C3000FF2806D0DFF8D8060078401CDFF8D01661
:101C40000870704710B50024DFF8F8080078012804
:101C500041D100F00DFE0400DFF8B4060078002842
:101C600006D0DFF8AC060078401EDFF8A416087036
:101C7000DFF89C06007800282AD1DFF89806007863
:101C8000002825D100F01CFBDFF8BC08DFF8BC18E9
:101C9000097850F82100DFF8B8180860DFF8AC08C0
:101CA0000078DFF8B0180978884211D0DFF8A00872
:101CB0000068406B401CDFF8981809684863DFF83B
:101CC00098080068401CDFF89018086000F0EDFDEF
:101CD000200000F0D1FD10BD80B5DFF86808007865
:101CE000002819D100F0ECFADFF860080078DFF87E
:101CF00064180870DFF85008DFF85018097850F8B9
:101D00002100DFF84C180860DFF844080068DFF8AD
:101D10002C18086000F0B3FD01BD70B5002402204E
:101D200000F0FCFD00F0A4FD05000020DFF82C18F9
:101D30000860280000F0A0FD642000F0EFFD00F036
:101D400097FD0600DFF814080068DFF81418086033
:101D50000120DFF810180870300000F08DFD70BD14
:101D6000F8B5002700F09DFC00F082FD0600DFF8CA
:101D7000F8070068401CDFF8F0170860300000F03A
:101D80007BFDDFF8C0070078012864D1DFF8DC07AD
:101D90000078002803D0022807D003D30CE00120EC
:101DA00005000FE0002005000CE0012005000120E7
:101DB000DFF8B817087005E0012005000020DFF803
:101DC000AC1708702800C0B2002844D0DFF8A00784
:101DD0000068040094F82E003F283CD000F048FD35
:101DE0000600A06A002831D0A06A401EA062A06A46
:101DF00000282BD194F82C0010F0370F09D094F85C
:101E00002C0010F0C80084F82C00012084F82D006C
:101E100002E0002084F82D0094F82C00000715D46F
:101E2000DFF85007017894F832000143DFF84407E7
:101E30000170DFF8440794F83010415C94F83100E9
:101E40000143DFF8340794F830208154646930008E
:101E500000F012FDBEE7F1BD70472DE9F84F040018
:101E60000D0016001F00DFF81407A17A10F801809A
:101E7000DFF808074146C9B22144C97A10F8019039
:101E80004046C0B2CA465FFA8AFA1AEBC00ADFF8C7
:101E9000B8065146C9B250F821B00020CBF828004E
:101EA000CBF824509BF82C00B0438BF82C008BF817
:101EB0002D709BF82C00000715D4DFF8B8060178C8
:101EC0009BF832000143DFF8AC060170DFF8A8068A
:101ED0004146C9B2415C9BF831000143DFF89806E6
:101EE0004246D2B281542100584600F05AF8DBF83D
:101EF0002000002806D0DBF82010584600F06EF8CD
:101F0000CBF81C405046C0B2BDE8F28F10B4DFF8E9
:101F10002C160968C861DFF82416096891F830109A
:101F20000144CA7ADFF81416096891F831100A439F
:101F3000DFF80816096891F830100144CA72827AF5
:101F4000DFF8F815096891F832100A438272DFF859
:101F5000EC15096891F83020DFF81C161300DBB28D
:101F6000CB5CDFF8D815096891F831108B43DFF8A6
:101F700008161400E4B20B55DFF8FC151300DBB2B1
:101F8000C95C00290BD1DFF8EC150B78DFF8AC1534
:101F9000096891F832108B43DFF8D8150B7010BC2C
:101FA000704710B490F830301A00D2B20A44D47A94
:101FB00090F8312094431A00D2B20A44D4721A0025
:101FC000D2B20A44D27A002A04D18C7A90F8322014
:101FD00094438C720022C26110BC7047F0B40200BE
:101FE0000B0092F8304092F8325092F831601F00A6
:101FF0003868002817D02100C9B20144C97AB1431A
:10200000A4465FFA8CFC84448CF80B102100C9B202
:102010000144C97A002902D1817AA94381723F1D06
:1020200039680800E5E7F0BC7047002181720021A3
:102030000A00D2B2082A06D200220B00DBB2034407
:10204000DA72491CF4E7704770B5F021DFF830050B
:1020500000F0FEF80021080080B209281AD2481CBE
:102060000400DFF81C250B009BB21820434302EB51
:1020700003000500DFF8082523009BB21820434326
:1020800002EB03000600002028706E609FA06861CC
:10209000491CE0E7DFF8E8240B009BB2182043431B
:1020A00002EB0300002202700022426097A242610C
:1020B000DFF8CC24DFF8CC341A6070BD0020DFF8E4
:1020C000A814086000209249087000209149087007
:1020D0000020DFF8B41408700020DFF868140870DE
:1020E0000020DFF8741408600020DFF87014086026
:1020F0000020DFF8981408600020DFF864140860FE
:102100000020DFF8601408700020DFF884140870E5
:1021100070470020DFF85C14087000200100C9B28D
:10212000082907D20021DFF850240300DBB2D15484
:10213000401CF3E70021DFF81C2411700021DFF8B8
:102140000C2411700021DFF8082411600021DFF851
:10215000EC231160704780B586B003200490002006
:10216000039080200290DFF82C0401904FF6FF705E
:1021700000903F23DFF8202400210FF26D1000F0C3
:1021800079FC05AADFF814143F2000F0A8FD07B081
:1021900000BD80B586B0032004900020039080200D
:1021A0000290DFF8FC0301904FF6FE7000903E2392
:1021B000DFF8F02300210FF2611000F05BFC05AAAC
:1021C000DFF8E4133E2000F08AFD07B000BD70B5D3
:1021D0004FF4DC61DFF8D40300F03AF84FF480717B
:1021E000DFF8640300F034F800210800C0B21528BD
:1021F00018D2481C0400DFF8B4230B00DBB25020D7
:10220000434302EB03000500DFF8A0232300DBB209
:102210005020434302EB030006006E613BA0A8641C
:10222000491CE2E7DFF884230B00DBB25020434374
:1022300002EB03000022426134A282640022DFF834
:1022400030331A60DFF86423DFF864331A6070BD3E
:102250000A0092B2002A04D000220270401C491EDB
:10226000F6E7704738B5002500F002FB0400284867
:102270000078002820D12748007800281CD100F0E1
:102280001FF8B148B149097850F82100B0490860F9
:10229000AE480078AF49097888420DD0AC48006854
:1022A000406B401CAA4909684863AB480068401C61
:1022B000A949086000F0F5FA200000F0DDFA31BD10
:1022C00010B4AE48AB490978405C0100C9B2AB4AD2
:1022D000A94B0400E4B21B5DD25C12EBC1029B4926
:1022E0000A7010BC7047000038B50400002500F0EB
:1022F000BFFA050099480068401C9849086028000A
:1023000000F0BAFA00F073F9F1E700003F000000B6
:10231000B22A0020B32A002070B50500002491489D
:102320000078002803D1C82000F0F8FAF7E78C48BD
:1023300000686421B0FBF1F08949086088480068B2
:10234000002805D100209B490870FF2000F06AFD9D
:1023500000F08EFA060082480168642041437F48FD
:102360000160300000F088FA00F082FA06007B4835
:10237000006886490860002078490860300000F055
:102380007BFA8248006876490968B0FBF1F0D0F129
:1023900064008849087000F034F900F004F8642003
:1023A00000F0BCFAE0E77CB500263000C0B240285F
:1023B0001CD269463000C0B200F0DCFC05002800E9
:1023C000C0B2002810D160483100C9B250F82100D5
:1023D0000400002C08D0012C06D0A068E16800EBB6
:1023E0008100206401986064761CDEE773BD2DE9EE
:1023F000FE4F06000D9F0E9D5FF0000900F038FAB9
:1024000080466B480468002C00F09280606968493F
:102410000860404600F030FA0098206084F82E6092
:10242000002084F82C00002084F82D000020A062F9
:1024300067600C98E0600198A0602582BDF80800F4
:102440006082002084F833003000C0B2C00884F8F5
:10245000300016F0070084F82F00012194F83000B6
:10246000814084F83210012194F82F00814084F8D3
:1024700031100020E0610020206200206062002016
:1024800060630020E0630020A0630020206400203F
:1024900060642BA0A0645FF000094846C0B2002829
:1024A00008D100204946C9B204EB8101C86419F182
:1024B0000109F2E7200000F0EEF800F0D9F98246B9
:1024C00021483100C9B240F82140504600F0D4F90B
:1024D000200000F080F800F0CBF983462448006823
:1024E00060610020A06122480068002802D02048D6
:1024F000006884611E4804601E48017894F8320028
:1025000001431C4801701C4894F83010415C94F859
:1025100031000143184894F8302081541A4800785B
:10252000401C19490870584600F0A6F9002003E045
:10253000404600F0A1F94220BDE8FE8F8C2A002021
:102540003F000000B72A00207C270020B52A002089
:10255000942A0020B42A0020782A0020882A00200B
:10256000802A0020B12A00209C2A0020B92A0020BD
:10257000982A0020B62A00203C2A0020185D000876
:102580007C2800207C2A0020B82A0020842A0020F1
:10259000BA2A00207C25002078270020B06300089C
:1025A0007C23002078250020C06300089C080020C0
:1025B000902A0020B02A00204C494FF400700028D7
:1025C00004D0401E00220A60091DF8E7484A494B22
:1025D0001A607047704710B50400200000F0B8FC86
:1025E00010BD10B50400200000F0B3FC10BD80B594
:1025F00000F0B0FC01BD10B50400200000F0ACFC00
:1026000010BD80B500F0A7FC01BD30B40400101D62
:10261000C008C000001F5FF080750560001F0460E7
:10262000001F354D0560001F5FF012350560001F6B
:102630005FF003350560001F5FF002350560001F85
:102640005FF001350560001F0160001F5FF011356C
:102650000560001F5FF010350560001F5FF0093551
:102660000560001F5FF008350560001F5FF007354B
:102670000560001F5FF006350560001F5FF005353F
:102680000560001F5FF00435056030BC704780B501
:1026900000F063FC01BD10B50400200000F05EFCFA
:1026A00010BD80B500F05BFC01BD10B500F0E0F896
:1026B0000400FFF7B5FA200000F0DEF8FFF750FB4A
:1026C000FFF7C0FA10BD411E0C4A1160FF210C4AF1
:1026D00011700C49096851F005010A4A1160094955
:1026E000096851F00201074A116070479C00002000
:1026F00098080020A02A0020FD2E000814E000E029
:1027000023ED00E010E000E02DE9F84F2A480090AA
:102710002A4800902A4800902A4800902A480090B1
:102720002A4800902A4800902A4800902A480090A1
:102730002A4800902A4800902A4800902A48009091
:102740002A4800902A4800902A4800902A48009081
:102750002A4800902A4800902A4800902A48009071
:102760002A4800902A4800902A4800902A48009061
:102770002A4800902A4800902A4800902A48009051
:102780002A4800902A4800902A4800902A482B495D
:102790002B4A2C4B2C4C2D4D2D4E2E4FDFF8B8C014
:1027A000DFF8B8E0DFF8B880DFF8B890DFF8B8A05D
:1027B000DFF8B8B0BDE8F18F3E0F00080C640008E8
:1027C0003E120008E2130008B60F00088A14000841
:1027D0002A1500085A15000896160008D216000897
:1027E000F6160008DA170008221A0008661A000810
:1027F000761A00087A1A00084A3600089A4E00082D
:10280000EE53000812560008FA60000872630008D0
:10281000B4640008B6640008B8640008BA6400082C
:10282000BC640008BE640008C0640008C2640008FC
:10283000C4640008C6640008C8640008CA640008CC
:10284000CC640008CE640008D0640008D26400089C
:10285000D4640008D6640008D8640008DA6400086C
:10286000DC640008DE640008E0640008F46400082A
:10287000EFF3108072B6704780F3108870471D48E0
:10288000FF210170002080F309881B48016881F353
:1028900008881A480121017019481A49016062B676
:1028A000FEE7174817490160704715481549016050
:1028B000704772B6EFF3098028B1203880E8F00F36
:1028C00011490968086000B5104880475DF804EBBD
:1028D0000F4810490A7802700B480F490A680260D5
:1028E000106890E8F00F203080F309884EF0040E55
:1028F00062B6704722ED00E0A02A0020B72A00202F
:1029000004ED00E0000000108C2A00208F26000853
:10291000B42A0020B52A0020942A002070B50400B3
:1029200000264E480078002831D14D480078002814
:102930002DD1002C2BD0FFF79BFF060049480068E3
:1029400090F83000050048482900C9B2415C45486C
:10295000006890F83100814343482A00D2B2815484
:1029600041482900C9B2405C002808D13F4801789D
:102970003C48006890F8320081433C480170394877
:10298000006884623000FFF777FFFFF76BFC70BDD3
:102990002DE9F04104000D0016001F002F480078BB
:1029A000002801D055204AE02D480078002801D0A9
:1029B000322044E02000C0B200280DD12800C0B26F
:1029C000002809D13000C0B2002805D1380080B2FB
:1029D000002801D1542032E02800C0B23C2801D3A5
:1029E00051202CE03000C0B23C2801D3522026E018
:1029F000380080B2B0F57A7F01D353201FE0A046A3
:102A00005FFA88F84FF461612A00D2B23C20424359
:102A100001FB08283000C0B210EB08084FF47A71AF
:102A20003A0092B24FF47A7042434FF47A70B2FB9C
:102A3000F0F001FB08084046FFF770FF0020BDE8FA
:102A4000F08170B504000025FFF712FF060008486A
:102A500004603000FFF710FF70BD0000B22A0020B4
:102A6000B32A00208C2A00203C2A0020B62A00200D
:102A70009C2A00202DE9F74F84B01D00119E129F63
:102A8000DDF84C80149C5FF0000A2800C0B240289A
:102A900001D32A205BE0FFF7EBFE8146DFF88404D8
:102AA0000078002804D04846FFF7E6FE3C204EE0C0
:102AB000DFF85C042900C9B250F82100002842D197
:102AC0000120DFF84C142A00D2B241F82200484617
:102AD000FFF7D2FE220092B23900300000F02CFA4B
:102AE00023009BB2069A05990498FFF78EFD824653
:102AF000200080B20290CDF804800097BDF84030ED
:102B0000320051462800C0B2FFF771FC8346584698
:102B1000C0B2002807D1DFF80804007801280FD1DF
:102B2000FFF7A0FB0CE0FFF7A3FE81460020DFF8D3
:102B3000E0132A00D2B241F822004846FFF79CFE7B
:102B40005846C0B203E04846FFF796FE282007B07B
:102B5000BDE8F08FF8B505000024DFF8C803007861
:102B6000002801D04020B9E02800C0B23F2801D1A0
:102B70003E20B3E02800C0B23F2805D32800C0B2F1
:102B8000FF2801D02A20A9E0FFF772FE06002800E6
:102B9000C0B2FF2805D1DFF87C03006890F82E0052
:102BA0000500DFF86C032900C9B250F82140002C61
:102BB00004D13000FFF760FE43208FE0012C04D1E8
:102BC0003000FFF759FE3D2088E0DFF84C0394F811
:102BD0003010415C94F831008143DFF83C0394F8F5
:102BE00030208154DFF8300394F83010405C002826
:102BF00008D1DFF82803017894F832008143DFF828
:102C00001C030170E069002803D0E1692000FFF790
:102C1000C8F9206A002803D0216A2000FFF7DEF9F6
:102C20000020A062002084F82C00002084F82D00F1
:102C3000DFF8F4020078FF2806D0DFF8EC02007815
:102C4000401CDFF8E41208703000FFF715FEFFF7B4
:102C500003F9FFF70DFE0700DFF8CC02007800282B
:102C600006D0DFF8C4020078401EDFF8BC120870FE
:102C70002000FFF7B6FCDFF8B4020078401EDFF852
:102C8000AC1208700020DFF888122A00D2B241F896
:102C90002200A069002807D100206169886160696D
:102CA000DFF88C12086005E06069A1694861A069DD
:102CB00061698861DFF87C0200686061DFF8740296
:102CC00004602BA0A0643800FFF7D6FDDFF85002A7
:102CD0000078012801D1FFF7C5FA0020F2BD2DE9E7
:102CE000F04107000C00160000253800C0B2402853
:102CF00006D33800C0B2FF2802D02A20307035E059
:102D0000002C02D10C20307030E0DFF8180200787F
:102D1000002802D01220307028E0FFF7A9FD80467D
:102D20003800C0B2FF2805D1DFF8E801006890F84C
:102D30002E000700DFF8D8013900C9B250F8215041
:102D4000002D05D14046FFF797FD432030700DE080
:102D5000012D05D14046FFF78FFD4320307005E07F
:102D6000AC644046FFF788FD00203070BDE8F0817C
:102D70003F0000002DE9F04706000C000025300060
:102D8000C0B2402805D33000C0B2FF2801D02A20AD
:102D900046E0002C01D1092042E000202060002004
:102DA0006060FFF765FD07003000C0B2FF2804D166
:102DB0005848006890F82E00060055483100C9B206
:102DC00050F82150002D04D13800FFF755FD432065
:102DD00026E0012D04D13800FFF74EFD43201FE00F
:102DE000287CC00704D43800FFF746FD452017E0D3
:102DF0005FF00008D5F80C90D5F808A03800FFF770
:102E00003BFD504610F1040A0068002802D118F179
:102E10000108F6E7C4F80080B9EB08006060002004
:102E2000BDE8F0872DE9F041050000242800C0B27C
:102E30003F2801D147205FE02800C0B23F2805D3DA
:102E40002800C0B2FF2801D02A2055E0FFF710FD6E
:102E500006002800C0B2FF2806D12E48006890F86E
:102E60002E00050001270AE028002A49096891F888
:102E70002E10C0B2884201D1012700E0002724486B
:102E80002900C9B250F82140002C04D13000FFF7CE
:102E9000F3FC482030E0012C04D13000FFF7ECFCBB
:102EA000432029E094F830801B484146C9B2415C78
:102EB00094F83100814318484246D2B281541648F2
:102EC0004146C9B2405C002806D11448017894F804
:102ED000320081431148017094F82C0050F0080032
:102EE00084F82C003000FFF7C7FC3800C0B201287E
:102EF00001D1FFF7B7F90020BDE8F08180B50548A2
:102F00000068FFF778FBFF20FFF724FE01BD0000FB
:102F10007C2700208C2A00203C2A0020B62A002092
:102F2000B72A0020B22A0020B32A0020B82A0020A5
:102F3000982A0020902A0020D30708D5930706D5A9
:102F4000002904D0491E00230360001DF8E77047E4
:102F500070477047704770477047704770477047B9
:102F60002DE9F84F86B004000D00002600275FF021
:102F700000085FF000095FF0000ADFF80C048442EB
:102F800014D0DFF80804844210D0DFF8040484422F
:102F90000CD0DFF80004844208D0DFF8000484423B
:102FA00004D0BE21DFF8F00300F04EFB28680028B3
:102FB00004D02868DFF8E813884204D3BF21DFF883
:102FC000D80300F041FBA888002808D0A888B0F5F5
:102FD000805F04D0C021DFF8C00300F035FBE88833
:102FE000002810D0E888B0F5805F0CD0E888B0F5F4
:102FF000005F08D0E888B0F5405F04D0C121DFF859
:10300000980300F021FB288900280CD02889B0F50E
:10301000806F08D02889B0F5C06F04D0C221DFF8D6
:10302000780300F011FB68894FF6F371084202D172
:103030006889002804D1C321DFF85C0300F004FB99
:10304000A889002810D0A889B0F5807F0CD0A88965
:10305000B0F5007F08D0A889B0F5407F04D0C42126
:10306000DFF8340300F0F0FAA889002810D0DFF868
:10307000180384420CD0DFF81403844208D0DFF830
:103080001003844204D0C821DFF80C0300F0DCFAFE
:10309000A346218A4CF6FF700140E8880143009165
:1030A00000982082A1894EF6F3100140AA88288951
:1030B000024368890243114300910098A081A18ACC
:1030C0004FF6FF400140A889014300910098A0827B
:1030D00001A800F0BBFADFF8B002834501D10499E2
:1030E00000E00399A089000407D5192000FB01F036
:1030F0002A685200B0FBF2F206E0192000FB01F052
:103100002A689200B0FBF2F26420B2FBF0F63601BE
:1031100033001B09642000FB1323A089000408D599
:10312000D80032306427B0FBF7F010F007000643F8
:1031300007E0180132306427B0FBF7F010F00F0001
:103140000643268107B0BDE8F08F38B504000D00B6
:10315000DFF83402844215D0DFF83002844211D007
:10316000DFF82C0284420DD0DFF82802844209D017
:10317000DFF82802844205D04FF4B471DFF818025A
:1031800000F062FA2800C0B2002809D02800C0B2BE
:10319000012805D040F26911DFF8FC0100F054FA73
:1031A0002800C0B2002804D0A08950F40050A081AB
:1031B00004E0A1894DF6FF700140A18131BD2DE9E8
:1031C000F04704000D00160000275FF000085FF0D4
:1031D00000095FF0000ADFF8B001844215D0DFF883
:1031E000AC01844211D0DFF8A80184420DD0DFF891
:1031F000A401844209D0DFF8A401844205D040F242
:103200008F11DFF8940100F01FFA280080B22828FF
:103210002DD0280080B240F22771884227D02800A4
:1032200080B240F22661884221D0280080B240F26C
:10323000255188421BD0280080B240F224418842A8
:1032400015D0280080B240F6460188420FD02800F1
:1032500080B240F66A11884209D0280080B2602806
:1032600005D04FF4C871DFF8300100F0EDF93000FF
:10327000C0B2002809D03000C0B2012805D040F209
:103280009111DFF8140100F0DFF9280080B240F658
:103290006A11884211D1DFF8F00084420DD0DFF8C6
:1032A000EC00844209D0DFF8E800844205D040F207
:1032B0009511DFF8E40000F0C7F9A4462900C9B26F
:1032C0004909C9B22A0092B212F01F0201239340A9
:1032D000012902D11CF10C0C06E0022902D11CF1DB
:1032E000100C01E01CF1140C3000C0B2002805D015
:1032F000DCF800001843CCF8000004E0DCF8000023
:103300009843CCF80000BDE8F08738B504000D0004
:103310001D48844210D01D4884420DD01C48844270
:103320000AD01C48844207D01C48844204D040F292
:103330005921194800F088F9280080B2B0F5007FC3
:1033400004DB40F25A21144800F07EF9E805C00D74
:10335000A08031BD10B504000B48844210D00B484A
:1033600084420DD00A4884420AD00A48844207D0D9
:103370000A48844204D040F26A21074800F064F908
:10338000A088C005C00D10BD0038014000440040B9
:1033900000480040004C0040185E0008005000400B
:1033A00021AA440070B504000D000026DFF8800259
:1033B000844215D0DFF87C02844211D0DFF8780215
:1033C00084420DD0DFF87802844209D0DFF874021D
:1033D000844205D04FF45D71DFF8600200F034F9EB
:1033E000280080B201282AD0280080B2802826D068
:1033F000280080B2402822D0280080B220281ED089
:10340000280080B210281AD0280080B2B0F5807F42
:1034100015D0280080B2B0F5007F10D0280080B20F
:1034200008280CD0280080B2042808D0280080B2D8
:10343000022804D040F27531804800F005F92800D8
:1034400080B2B0F5007F0DD1794884420AD0794826
:10345000844207D07848844204D040F279317748DA
:1034600000F0F2F82088284201D0012000E000207E
:10347000C0B270BD38B504000D006D48844210D054
:103480006C4884420DD06C4884420AD06C48844217
:1034900007D06C48844204D04FF46971674800F04B
:1034A000D3F84FF69F40054203D1280080B2002890
:1034B00004D140F2A531614800F0C6F8280080B27E
:1034C00080050DD55A4884420AD05A48844207D014
:1034D0005948844204D040F2A931584800F0B4F869
:1034E000280080B2C043208031BD2DE9F84304009C
:1034F0000D0000275FF000085FF0000900264C482F
:10350000844210D04B4884420DD04B4884420AD0AC
:103510004B48844207D04B48844204D04FF4727128
:10352000464800F091F8280080B2282842D02800B0
:1035300080B240F2277188423CD0280080B240F22D
:103540002661884236D0280080B240F22551884258
:1035500030D0280080B240F2244188422AD028008E
:1035600080B240F64601884224D0280080B240F65E
:103570006A1188421ED0280080B2B0F5587F19D059
:10358000280080B240F22531884213D0280080B252
:10359000B0F5587F0ED0280080B2B0F5187F09D062
:1035A000280080B2B0F5B07F04D040F2C931234882
:1035B00000F04AF8280080B240F66A1188420DD126
:1035C0001B4884420AD01B48844207D01A488442D0
:1035D00004D040F2CD31194800F036F82B00DBB2B0
:1035E0005B09DBB22A0092B212F01F02012010FA2E
:1035F00002F2012B02D1A089024006E0022B02D187
:10360000208A024001E0A08A0240290089B2090A0A
:1036100089B2012010FA01F120880140002A03D06C
:10362000002901D0012000E00020C0B2BDE8F283F3
:10363000003801400044004000480040185E000887
:10364000004C004000500040FEE700002DE9F04F24
:103650000025002200210023DFF8B841246814F07F
:103660000C042600002E04D0042E06D0082E08D00C
:103670002EE0DFF8A85105602DE0DFF8A0510560CD
:1036800029E0DFF890512D6815F47015DFF884619A
:10369000366816F480363100AD0CAD1C2A000029C6
:1036A00005D1DFF87C5105FB02F505600FE0DFF87E
:1036B00064512D68AD0305D5DFF8645105FB02F5B3
:1036C000056004E0DFF8545105FB02F5056002E0F7
:1036D000DFF848510560DFF83C512D6815F0F00522
:1036E0002D09DFF84061765D0768F7404760DFF835
:1036F00024713F6817F4E0673F0ADFF828C11CF81F
:1037000007C0D0F804E03EFA0CFEC0F808E0DFF88D
:1037100004E1DEF800E01EF4605E5FEADE2EDFF812
:10372000048118F80E80D0F8049039FA08F9C0F82E
:103730000C90DFF8E090D9F8009019F440495FEA66
:103740009939DFF8E4A01AF809A0D0F80CB0BBFB57
:10375000FAFBC0F810B0BDE8F08F38B504000D00DA
:10376000DFF8C800044201D1002C05D14FF48B6171
:10377000DFF8A400FFF768FF2800C0B2002809D0D6
:103780002800C0B2012805D040F25941DFF8880076
:10379000FFF75AFF2800C0B2002807D0DFF89000DA
:1037A00000682043DFF88810086006E0DFF880003A
:1037B0000068A043DFF87810086031BD38B5040018
:1037C0000D00DFF87000044201D1002C04D140F25A
:1037D00077411148FFF738FF2800C0B2002808D011
:1037E0002800C0B2012804D04FF48F610A48FFF7C7
:1037F0002BFF2800C0B2002805D00F4800682043E6
:103800000D49086004E00C480068A0430A490860BC
:1038100031BD000004100240245F000800127A004D
:1038200000093D0000000020100000200200C0FF41
:1038300018100240003601811C10024070B50400CF
:103840000D000026DFF86401844243D0B4F1804FBC
:1038500040D0DFF85C0184423CD0DFF8580184425C
:1038600038D0DFF85401844234D0DFF8500184426C
:1038700030D0DFF84C0184422CD0DFF8480184427C
:1038800028D0DFF84401844224D0DFF8400184428C
:1038900020D0DFF83C0184421CD0DFF8380184429C
:1038A00018D0DFF83401844214D0DFF830018442AC
:1038B00010D0DFF82C0184420CD0DFF828018442BC
:1038C00008D0DFF82801844204D0ED21DFF8180188
:1038D000FFF7BAFE6888002810D0688810280DD03D
:1038E000688820280AD06888402807D0688860281F
:1038F00004D0EE21DFF8F000FFF7A6FEE8880028EC
:103900000CD0E888B0F5807F08D0E888B0F5007F5B
:1039100004D0EF21DFF8D000FFF796FE2188DFF812
:103920008C00844212D0DFF89C0084420ED0B4F1A7
:10393000804F0BD0DFF87800844207D0DFF87400A6
:10394000844203D0DFF87000844204D14FF68F70B8
:10395000014068880143DFF86400844208D0DFF842
:103960006000844204D04FF6FF400140E8880143E4
:103970002180A888A08528882085DFF8300084422F
:103980000FD0DFF8400084420BD0DFF854008442AF
:1039900007D0DFF85000844203D0DFF850008442A3
:1039A00001D1287A20860120A08270BD002C014020
:1039B0000004004000080040000C004000100040DF
:1039C0000014004000340140004C01400050014010
:1039D0000054014000180040001C0040002000403E
:1039E0000040014000440140D45F0008004801400D
:1039F00038B504000D00DFF8AC01844243D0B4F1C7
:103A0000804F40D0DFF8A00184423CD06748844218
:103A100039D0DFF8A001844235D0DFF8C4018442F8
:103A200031D0DFF8C00184422DD0DFF88401844218
:103A300029D0DFF88401844225D0DFF88001844258
:103A400021D0DFF87C0184421DD0DFF87801844268
:103A500019D0DFF87401844215D0DFF87001844278
:103A600011D0DFF86C0184420DD0DFF86801844288
:103A700009D0DFF86801844205D040F22F31DFF829
:103A80005801FFF7E1FD2800C0B2002809D0280046
:103A9000C0B2012805D04FF44C71DFF83C01FFF7AC
:103AA000D3FD2800C0B2002804D0208850F00100C7
:103AB000208004E021884FF6FE700140218031BD56
:103AC00070B504000D0016003648844242D0B4F1AF
:103AD000804F3FD0344884423CD03448844239D06F
:103AE000DFF8D000844235D0DFF8F400844231D0D2
:103AF000DFF8F00084422DD0DFF8B400844229D0F2
:103B0000DFF8B400844225D0DFF8B000844221D031
:103B1000DFF8AC0084421DD0DFF8A800844219D041
:103B2000DFF8A400844215D0DFF8A000844211D051
:103B3000DFF89C0084420DD0DFF89800844209D061
:103B4000DFF89800844205D040F27131DFF8880038
:103B5000FFF77AFD15F47F4F03D1280080B20028CB
:103B600005D140F27231DFF87000FFF76DFD3000D3
:103B7000C0B2002809D03000C0B2012805D040F200
:103B80007331DFF85400FFF75FFD3000C0B200284A
:103B900003D0A0892843A08102E0A089A843A08186
:103BA00070BD0000002C01400004004000080040EF
:103BB00000340140000C0040004C01400050014026
:103BC0000054014000180040001C0040002000404C
:103BD0000040014000440140D45F0008004801401B
:103BE00000100040001400402DE9F04104000D00D9
:103BF000002600275FF00008DFF89C01844240D0D7
:103C0000B4F1804F3DD0DFF8A001844239D0DFF815
:103C10009C01844235D0DFF8AC01844231D0DFF81A
:103C20007C0184422DD0DFF87801844229D0DFF86E
:103C30009801844225D05448844222D0DFF8700194
:103C400084421ED0DFF86C0184421AD04F4884426F
:103C500017D0DFF86401844213D0DFF8600184429A
:103C60000FD04B4884420CD04A48844209D0DFF838
:103C70005001844205D040F65321DFF82801FFF7B8
:103C8000E3FC280080B2012820D0280080B202285E
:103C90001CD0280080B2042818D0280080B2082840
:103CA00014D0280080B2102810D0280080B220281C
:103CB0000CD0280080B2402808D0280080B280288C
:103CC00004D040F654213748FFF7BEFC218A294032
:103CD000A2892A40080080B2002805D0100080B2D6
:103CE000002801D0012000E00020C0B2BDE8F08132
:103CF00038B504000D002848844234D0B4F1804F18
:103D000031D0294884422ED0284884422BD02D48D7
:103D1000844228D02148844225D02148844222D0A0
:103D2000294884421FD0184884421CD0204884422D
:103D300019D02048844216D01448844213D01E481B
:103D4000844210D01D4884420DD0114884420AD0CC
:103D50001048844207D01A48844204D040F67D219E
:103D60001048FFF771FC15F47F4F03D1280080B293
:103D7000002804D140F67E210A48FFF765FC2800A0
:103D800080B2C043208231BD004C01400018004089
:103D90000040014000440140002C01400010004060
:103DA00000140040D45F00080004004000080040F8
:103DB0000050014000540140001C00400020004021
:103DC00000480140000C004000340140012210F086
:103DD0001F018A40DFF8F41303005BB25B0941F86E
:103DE00023207047012210F01F018A40DFF8E01302
:103DF00003005BB25B0941F82320704710B5040053
:103E00002000C0B20C2804D10C20DFF8C8130870C1
:103E10004FE02000C0B2102829D18121012000F0FC
:103E200049F80021202000F045F80A21212000F067
:103E300041F80021222000F03DF84FF69F7111203B
:103E400000F038F80021402000F034F800210D2067
:103E500000F030F8FF21122000F02CF8852101201D
:103E600000F028F81020DFF86C13087021E0200023
:103E7000C0B2082804D10820DFF85813087018E0F1
:103E80002000C0B2042808D18121012000F012F8DE
:103E90000420DFF8401308700BE08121012000F0BE
:103EA00009F88021012000F005F80020DFF8241334
:103EB000087010BD38B504000D0054F080041020C7
:103EC000DFF81413086042F2107000F005FA2000C9
:103ED000C0B200F0BDFB2800C0B200F0B9FB10205A
:103EE000DFF8F812086031BD38B50400002514F081
:103EF0007F041020DFF8E01208602000C0B200F05C
:103F0000A7FBFF2000F0A4FB1021DFF8D0221160F6
:103F1000C0B280B232BD10B504002100C9B289B26E
:103F20000020FFF7C7FF10BDF8B504000D00002703
:103F30001020DFF8A4120860002000F089FB0026A2
:103F400030002900C0B2C9B2884207D2FF2000F079
:103F50007FFB3100C9B26054761CF1E71020DFF816
:103F60007C1208600120F2BD10B504004FF400601F
:103F700099490860C82000F0AFF94FF400609749F4
:103F8000086042F2107000F0A7F900210120FFF74D
:103F900091FF80210120FFF78DFF81210120FFF794
:103FA00089FFFF210920FFF785FF07214D20FFF73B
:103FB00081FF02210A20FFF77DFF3B210B20FFF745
:103FC00079FF02212220FFF775FF04212620FFF749
:103FD00071FF34213920FFF76DFF72211D20FFF79B
:103FE00069FF94211E20FFF765FF14212120FFF7B0
:103FF00061FF00212020FFF75DFF79480460012068
:1040000010BD10B501240020FFF7F8FE2820FFF7AF
:10401000E9FE2000C0B210BD2DE9F84304000125DF
:104020005FF00008002600272000FDF70FFD0022AA
:104030006C4BFDF7D3FBFDF7F5FC81464846000CC1
:104040008DF800004846000A8DF8010048468DF8BA
:1040500002006548844202D36448844202D30020AF
:1040600005003BE00420FFF7C9FE9DF8001089B26F
:104070000620FFF71FFF9DF8011089B20720FFF708
:1040800019FF9DF8021089B20820FFF713FF0620E0
:10409000FFF72AFF80460720FFF726FF06000820CB
:1040A000FFF722FF070040469DF80010C0B288428B
:1040B00002D00020050011E030009DF80110C0B2D0
:1040C000884202D00020050008E038009DF8021068
:1040D000C0B2884202D000200500FFE72800C0B22D
:1040E000BDE8F2832DE9F84305008846404E0127DC
:1040F00000244046C0B2FF2803D04046C0B200288A
:1041000001D100204CE0002D01D1002048E0282002
:10411000FFF768FE81210120FFF7CCFE4146C9B2BE
:1041200089B22220FFF7C6FE80210D20FFF7C2FED4
:104130005FF0000948464146C0B2C9B2884207D282
:104140004846C0B2285CFFF7E6FE19F10109F1E725
:10415000FF211220FFF7AEFE4FF6F7711120FFF797
:10416000A9FE40214020FFF7A5FE83210120FFF793
:10417000A1FE1F4C1F480068400404D4641E002C9C
:10418000F8D1002007004FF4804000F081FB4FF48D
:10419000804000F08CFB2820FFF718FE3800C0B2EA
:1041A000BDE8F28380B54FF4804000F071FB4FF41E
:1041B000804000F07CFB1048FFF72EFF1020FFF737
:1041C0001DFE2820FFF702FE01BD000000E100E017
:1041D00080E100E098000020140801401008014030
:1041E0004C2A002080844E4080A1031C81FB651E68
:1041F00000127A00080C01400065CD1D10B40200C9
:1042000052B2002A0AD50A01DFF8A032040064B2D3
:1042100014F00F04234403F8042C05E00A01DFF82E
:104220009032040064B21A5510BC704710B50400F7
:10423000B4F1807F01D3012013E024F07F40401EC1
:10424000DFF8701208600F215FF0FF30FFF7D6FF34
:104250000020DFF8641208600720DFF860120860B1
:10426000002010BD10B500242000C0B2002827D1C6
:104270000021DFF84C222300DBB20C20434302EB89
:10428000030041600021DFF838222300DBB20C205C
:10429000434302EB030081600021DFF82422230066
:1042A000DBB20C20434302EB030041700021DFF836
:1042B00010222300DBB20C204343D154641CD3E70B
:1042C000DFF8000200684FF47A71B0FBF1F0FFF7FD
:1042D000ADFF00F062F810BD70B40024DFF8D41117
:1042E0000E68DFF8E0110968DFF8DC21B1FBF2F1BC
:1042F00001FB00F10025DFF8C0211268DFF8B841AA
:10430000246823009342F9D0934202D25519ED1A42
:1043100002E07519ED1A55191A008D42EED370BCE2
:104320007047F8B504000D0000262000C0B2002838
:1043300008D0DFF89821DFF89811DFF8980100F035
:10434000D3FAFEE7FEF794FA0700DFF874112200B3
:10435000D2B20C20424301EB02004560DFF860114D
:104360002200D2B20C20424301EB02008560002102
:10437000DFF84C212300DBB20C20434302EB0300A7
:1043800041700021DFF838212300DBB20C204343C9
:10439000D1543800FEF770FAF1BD7FB5012101203C
:1043A000FFF70CFA4748046864084748B4FBF0F587
:1043B0004FF6FF763000ADF80800ADF8045000204D
:1043C000ADF80A000020ADF8060001A95FF08040BA
:1043D000FFF734FA01215FF08040FFF709FB1C2052
:1043E0008DF8000004208DF8010000208DF80200F7
:1043F00001208DF80300684600F0A4FA7FBD80B567
:1044000002215FF08040FFF7EFFB00280DD0022172
:104410005FF08040FFF76CFC002202215FF08040DB
:10442000FFF74EFB2C480068804704215FF0804076
:10443000FFF7DAFB00280DD004215FF08040FFF782
:1044400057FC002204215FF08040FFF739FB23482E
:104450000068804708215FF08040FFF7C5FB002817
:104460000DD008215FF08040FFF742FC00220821B8
:104470005FF08040FFF724FB194800688047102157
:104480005FF08040FFF7B0FB00280DD010215FF0F7
:104490008040FFF72DFC002210215FF08040FFF7E5
:1044A0000FFB10480068804701BD000018ED00E0D8
:1044B00000E400E014E000E018E000E010E000E0BC
:1044C000282A00201400002040420F00A0630008AA
:1044D000346100082C630008502A0020542A002070
:1044E000582A00205C2A0020A549098811F441516E
:1044F0000143A34A1180A2490A884FF6BF710A40BE
:104500009F490A809E49098851F040019C4A1180C8
:10451000704780B501214FF48050FFF71EF901214B
:104520000420FFF71AF918208DF8030003208DF8F6
:1045300002002020ADF800006946924800F05AFAC7
:104540004020ADF8000069468E4800F053FA802004
:10455000ADF8000069468B4800F04CFA4FF44B7000
:10456000FFF7C2FF884801884FF2FF70014086487C
:1045700001800720854908800021814800F0B4FBB4
:1045800001217F4800F0B0FB01BDF8B501210420F6
:10459000FFF7E3F801210420FFF7DFF801210820ED
:1045A000FFF7DBF810208DF8030003208DF80200E0
:1045B0001020ADF800006946724800F01BFA102088
:1045C0008DF8030003208DF802004FF40060ADF871
:1045D000000069466B4800F00DFA28208DF80300B2
:1045E00001208DF802004FF48040ADF800006946CC
:1045F000674800F0FFF901210120FFF7AEF80E2116
:10460000012000F0D9FA4FF48040029000208DF88C
:104610000C0008208DF80D0001208DF80E0002A876
:1046200000F0C4F84FF4804000F032F94FF48040BD
:1046300000F03DF928208DF8040000208DF80600D8
:1046400001208DF8070001A800F07CF905B000BD3D
:1046500070B5040000250221494800F0A4FB0028A1
:1046600006D16D1C2800C0B2C928F4DB002017E079
:104670002100C9B289B2424800F068FB002601213E
:104680003F4800F090FB002806D1761C3000C0B2F5
:10469000C928F4DB002003E0394800F06EFBC0B20B
:1046A00070BD80B5FFF735FFFFF76FFF01BD2DE946
:1046B000F04701245FF00008002500264FF48040F9
:1046C00000F0F5F80120334908701C20FFF70CFCBE
:1046D0000700780608D51220FFF706FC0500A8069B
:1046E00002D5002004001FE01A20FFF7FDFB2A4935
:1046F0000870294800786330274908701320FFF7B5
:10470000F3FB06003000C0B2002802D100200400F4
:104710000AE02248067000210D20FFF7CBFB310094
:10472000C9B21F48FFF700FCFF211220FFF7C2FBB0
:104730002000C0B201280ED1174890F90020174878
:1047400001781748174B1B689847012016490870D5
:10475000FFF757FC0FE00020134908705FF03208A4
:104760005FF00009DFF838A04A464146504600F0A5
:1047700061FBFFF717FDFFF715FDBDE8F0870000AF
:1047800000300140000801401C3001401030014061
:10479000000C0140AD2A0020AF2A0020AE2A0020E4
:1047A000BC2900204C2A0020AC2A002038B5040087
:1047B00000252079002806D02079042803D0702114
:1047C0004848FEF741FF6079082809D060790C2835
:1047D00006D06079102803D071214248FEF734FFDB
:1047E0002068000D0005002802D12068002803D1B0
:1047F00072213C48FEF728FFA079002806D0A07956
:10480000012803D073213748FEF71EFF3049A079F5
:10481000002836D02E480268206882432C48026067
:104820002C480268206882432A4802602079411897
:104830000A68206802430A602748026820688243A9
:1048400025480260254802682068824323480260A8
:10485000607910280CD120480268206802431E4865
:1048600002601E480268206802431C4802600EE095
:10487000174A6079821811000A68206802430A60AA
:1048800005E0207941180A68206882430A6031BD3A
:1048900010B50400200D0005002801D1002C03D123
:1048A000DA211048FEF7D0FE0D48046010BD10B5A7
:1048B0000400200D0005002801D1002C04D14FF484
:1048C00081710848FEF7C0FE0548046010BD000075
:1048D0000004014004040140080401400C040140AC
:1048E00014040140745E00080EB4C0B5024603A86B
:1048F00000210190009101AB0121044878440C3063
:10490000FBF7F4FB06BC5DF810FB00BF731A000058
:1049100010B50400B4F5E06F0FD0B4F5C06F0CD043
:10492000B4F5A06F09D0B4F5806F06D0B4F5407F20
:1049300003D069212948FEF787FE294820432949E9
:10494000086010BDF8B50400002500260F27E078A8
:10495000002806D0E078012803D07B211F48FEF70D
:1049600073FE6078102803DB7C211C48FEF76CFE88
:10497000A078102803DB7D211848FEF765FEE0785B
:1049800000281FD01748006810F4E060D0F5E06000
:10499000000AD0F104010E00C7406178B140A2784E
:1049A0003A40114309010D000F4922788D5401212D
:1049B000227812F01F0291400C4A23785B1142F8D2
:1049C000231009E00120217811F01F0188400849D7
:1049D0002278521141F82200F1BD00002C6000083D
:1049E0000000FA050CED00E000E400E000E100E06A
:1049F00080E100E02DE9F84F04000D000020009058
:104A0000002600275FF000085FF000095FF0000A51
:104A1000DFF8840184421CD0DFF88001844218D082
:104A2000DFF87C01844214D0DFF87801844210D092
:104A3000DFF8740184420CD0DFF87001844208D0A2
:104A4000DFF86C01844204D0B821DFF86801FEF77A
:104A5000FBFDE878002819D0E878042816D0E8781B
:104A6000282813D0E878482810D0E87814280DD0EA
:104A7000E87810280AD0E8781C2807D0E8781828A9
:104A800004D0B921DFF82C01FEF7DEFD28880028CC
:104A900004D1BA21DFF81C01FEF7D6FD95F803B06A
:104AA0001BF00F0BE878C00610D5A87801280AD0B3
:104AB000A878022807D0A878032804D0C121DFF8FD
:104AC000F400FEF7C1FDA87850EA0B0B2878000629
:104AD0002BD02068814600200700082F23D2012018
:104AE000B8408046288818EA00000600464518D1DC
:104AF000B80080460F2010FA08F0824639EA0A0909
:104B00001BFA08F050EA0909E878282803D10120A7
:104B1000B840606105E0E878482802D10120B8403B
:104B200020617F1CD9E7C4F800902888B0F5807F09
:104B300030DB6068814600200700082F28D2012161
:104B400017F1080081408846288818EA000006000E
:104B500046451BD1B80080460F2010FA08F0824667
:104B600039EA0A091BFA08F050EA0909E878282806
:104B700004D1012117F1080081406161E8784828DB
:104B800004D1012117F10800814021617F1CD4E785
:104B9000C4F80490BDE8F18F00080140000C01400A
:104BA000001001400014014000180140001C0140A9
:104BB00000200140CC5E000870B506000C00002506
:104BC0003000C0B200281CD03000C0B2012818D07C
:104BD0003000C0B2022814D03000C0B2032810D078
:104BE0003000C0B204280CD03000C0B2052808D074
:104BF0003000C0B2062804D040F26B213848FEF7DE
:104C000023FD2000C0B2002840D02000C0B20128FF
:104C10003CD02000C0B2022838D02000C0B2032807
:104C200034D02000C0B2042830D02000C0B2052803
:104C30002CD02000C0B2062828D02000C0B20728FF
:104C400024D02000C0B2082820D02000C0B20928FB
:104C50001CD02000C0B20A2818D02000C0B20B28F7
:104C600014D02000C0B20C2810D02000C0B20D28F3
:104C70000CD02000C0B20E2808D02000C0B20F28EF
:104C800004D04FF41B711648FEF7DEFC0F2014F021
:104C90000301C9B2890010FA01F112482200D2B210
:104CA000921050F8220088430E4A2300DBB29B107A
:104CB00042F823000B482200D2B2921050F8222072
:104CC0003300DBB214F00300C0B2800083401A430B
:104CD00004482300DBB29B1040F8232070BD000085
:104CE000CC5E00080800014038B504000D00DFF874
:104CF000340184420DD0DFF83001844209D0DFF85E
:104D00003001844205D04FF4DA71DFF82001FEF75C
:104D10009BFC2800C0B2002809D02800C0B201289E
:104D200005D040F2B511DFF80401FEF78DFC280034
:104D3000C0B2002804D0208850F04000208004E059
:104D400021884FF6BF700140218031BD38B5040085
:104D50000D00DFF8D00084420DD0DFF8CC00844293
:104D600009D0DFF8CC00844205D04FF40B71DFF896
:104D7000BC00FEF769FCA58131BD10B50400DFF869
:104D8000A40084420DD0DFF8A000844209D0DFF8EF
:104D9000A000844205D04FF40F71DFF89000FEF7B9
:104DA00053FCA08910BD70B504000E0000251D48FD
:104DB00084420AD01C48844207D01D48844204D053
:104DC0004FF442711948FEF73FFC300080B2802852
:104DD00020D0300080B240281CD0300080B2202883
:104DE00018D0300080B2102814D0300080B20828CB
:104DF00010D0300080B204280CD0300080B20228DD
:104E000008D0300080B2012804D040F209310748B0
:104E1000FEF71AFC2089304201D0012000E000207A
:104E2000C0B270BD00300140003800407C5F000817
:104E3000003C004062F30F2262F31F42401810F062
:104E4000030308D0C91A1FD3DB0748BF00F8012DA0
:104E500028BF20F8022D130030B41446154610392F
:104E600028BF20E93C00FAD8490728BF20E90C00F8
:104E700048BF40F8042D890028BF20F8022D48BF04
:104E800000F8012D30BC7047C91818BF00F8012D7B
:104E9000CB0728BF00F8012D7047050010B401238F
:104EA000A44C237010BC704780B586B0FCF7A4FEFC
:104EB00003200490002003904FF4807002909E48DD
:104EC00001900020009000239C4A00210FF2210055
:104ED000FDF7D0FD05AA9A490020FDF700FF00204C
:104EE000FDF7AFFDFCF7F8FE002007B000BD0000A5
:104EF00038B5040000F05AF900F078F900F06AF9CA
:104F0000FFF7B0F901210020FFF70BFA8D48FFF7FA
:104F10002BF88D48FFF780F8FFF744F900F09FF871
:104F2000FCF7FBFE00F0D5F888480078012816D180
:104F3000002086490870864800F072F8854800F025
:104F40006FF800252800C0B2322808D28248290014
:104F5000C9B2415C814800F063F86D1CF2E74FF480
:104F6000FA73002200210020FDF712FDDCE710B5E6
:104F70000400012000F005FA002301220021002096
:104F8000FDF706FDF5E77CB50400684600F00AFA77
:104F90009DF80000724908709DF801007049487042
:104FA0009DF802006E4988709DF803006C49C87036
:104FB0009DF804006A49087103216A4800F018FA54
:104FC000050067484571280080B2000A644988716D
:104FD0006548FFF721F807216148FFF783F80128AA
:104FE00013D1624800F01CF8614800F019F800265F
:104FF0003000C0B2072808D259483100C9B2415C1C
:10500000564800F00DF8761CF2E7FEF7FAFFFFF7BE
:10501000C9F800231E2200210020FDF7B9FCB4E7E7
:105020000EB430B596B0040019AD2B00220051210A
:1050300001A800F0F5F96A4600214E48006800F02A
:1050400035FA01A939A0FFF74FFC4A48006800F083
:10505000AFFA8DF8000016B030BC5DF810FB80B5DB
:1050600086B0002000F0D6FA43490860012000F025
:10507000F5F94049086003200490002003904FF4A4
:10508000807002903D4801903C2000903C233C4AB7
:1050900000213C48FDF7EEFC05AA3B493C20FDF70A
:1050A0001EFE03200490002003904FF480700290B5
:1050B00036480190032000900323354A00213548EB
:1050C000FDF7D8FC05AA1AA10320FDF708FE07B0DA
:1050D00000BD1FB5304C3148FFF7A2FF3048FFF745
:1050E0009FFF3048FFF79CFF2C48FFF799FF0A20ED
:1050F000FDF714FC002C18D002A994F82E00FDF73F
:1051000039FEA06C0190039964204143039A0298F0
:105110008218B1FBF2F00090029B039A94F82E10D3
:105120002148FFF77DFFA469E4E71FBD2573000058
:10513000434F4D00AC2A00207C0F00207813002044
:10514000E06300089D4E00080065CD1DAD2A0020DB
:10515000A8620008EC620008BC2900200464000872
:10516000342A0020362A0020603E451C30620008A8
:105170000C630008482A0020442A00207C170020E5
:10518000781B0020874F0008EC6300087C13002088
:10519000781700206F4F00089C080020FC60000872
:1051A000A4610008D46100085862000880B54FF47B
:1051B0004070FFF7ADFB00F05BFA00F0C3F8FFF7BB
:1051C00070FA01BD00B585B06846FEF73FFA019858
:1051D00005B000BD38B5FFF7F5FF04004FF47A7055
:1051E000B4FBF0F52800FDF76EFA31BD80B500F094
:1051F00054F800F059F800F04CF801BD38B500241F
:1052000000F06EFB050000F00FF81021DFF8100130
:1052100000F07CFB00F01CF8280000F065FB31BDBD
:10522000DFF800110860704780B541480088401CD5
:105230003F4908803F480088002803D100F0B7FBB1
:105240003D4908603B480088401C3A49088001BD40
:1052500010B538480088401E364908803548008817
:10526000002815D100F0A3FB3449086033480168D9
:1052700031480068091A0C002B480068A04201D28E
:105280002948046029480068A04201D227480460E8
:1052900010BD80B5FFF7B2FF01BD80B500202149E8
:1052A000086000F06DFB01BDF8B500240020204926
:1052B000088000201F49088000201F490860002046
:1052C0001E4908600020184908600020174908603E
:1052D00000201B490860002700F002FB05000026A3
:1052E000300080B200280BD100200F490860FFF782
:1052F0009BFFFFF7ADFF0C480068C719761CEFE76E
:105300000120B7FBF0F00E49086000200649086054
:10531000002006490860280000F0E6FAF1BD000010
:10532000182A0020602A0020702A0020742A0020F9
:10533000A82A0020AA2A0020642A0020682A002027
:105340006C2A002080B501210420FEF706FA012016
:1053500000F00EF803208DF8020010208DF80300F5
:105360000820ADF8000069460B48FFF743FB01BD7C
:10537000411E0800C0B2002802D10820074A106070
:1053800070470100C9B2012905D10549096891F0AA
:105390000801034A116070470008014010080140ED
:1053A0000C0801403EB5040007208DF800000520E0
:1053B0008DF8010018208DF8020017208DF80300E9
:1053C00000208DF8040003210DF1020000F010F818
:1053D000050028008DF80500280080B2000A8DF82D
:1053E0000600200069460722FBF7FCFF37BD0100DD
:1053F00070B40200002000238B420CD2074C050041
:10540000ADB2167896EA252634F8164094EA0020C4
:10541000521C5B1CF0E780B270BC7047C05900089A
:1054200008B584B00023039300290EBF01930190B7
:10543000491E0291009301A904AB07487844183033
:10544000FAF754FE019909B100220A70002858BFEA
:10545000039805B000BD00BFB7BAFFFFF8B505005F
:1054600000264F480078002801D000201DE0FDF7FD
:10547000FFF907004B4804684A480068002804D038
:10548000484800684068474908603800FDF7F4F96B
:10549000002C09D0032020702581002060603FA0EF
:1054A00060612000FCF7C1FD2000F2BD2DE9F04154
:1054B00004000D0016000027002C02D104203070DB
:1054C0006AE02078032802D00120307064E034487C
:1054D0000078002802D0022030705DE03248007869
:1054E000002802D00D20307056E0FDF7C1F980464B
:1054F0002089002808D02089401E20814046FDF7E1
:10550000BBF90020307047E02848006890F82C0074
:1055100050F001002549096881F82C00002023493A
:10552000096881F82D002148006885622000FCF799
:10553000EDFC4046FDF7A0F9FCF794FEFDF798F965
:1055400007001A48006890F82D00002802D00228B1
:1055500003D005E00020307009E00E20307006E036
:10556000210012480068FCF71CFD0A203070002062
:105570000E49096881F82C0000200C49096881F85F
:105580002D00002009490968C86100200749096801
:1055900008623800FDF770F9BDE8F0813F000000B7
:1055A000B22A00207C2A0020B32A00208C2A002066
:1055B00070B504000025002C01D1042028E02078DB
:1055C000032801D0012023E0FDF752F90600A07A5C
:1055D00000280CD00023012200212000FCF73DFC14
:1055E0003000FDF749F9FCF73DFE002010E020896E
:1055F0004FF6FF71884207D02089401C208130007F
:10560000FDF73AF9002003E03000FDF735F93320CB
:1056100070BD0000F8B5050000261348007800288A
:1056200001D000201DE0FDF723F907000F480468B2
:105630000E480068002804D00C48006840680B49F8
:1056400008603800FDF718F9002C09D001202070FF
:1056500000202081656003A060612000FCF7E5FC6C
:105660002000F2BD3F000000B22A00207C2A00206A
:1056700080B500F005F800F030F800F078F801BDD2
:1056800091489049086091488E49486090488D49FA
:1056900088604FF480608B4988814FF4806089492D
:1056A000C88100208749088200208649488200205E
:1056B0008449C882002083490883002081494883A7
:1056C00000208049888200207E49C86100207D49F1
:1056D000086200207B494862704700B585B001210F
:1056E0000520FEF73AF801214FF48040FEF735F827
:1056F0004FF40070ADF8000018208DF8030003206F
:105700008DF8020069467348FFF774F94FF4806022
:10571000ADF8000004208DF8030069466D48FFF7DE
:1057200069F95FF4E13001900020ADF80800002035
:10573000ADF80A000020ADF80C000020ADF8100014
:105740000C20ADF80E0001A95F48FDF709FC01220D
:1057500040F225515C48FDF732FD01215A48FDF722
:10576000F4FC40215848FDF785FE05B000BD80B52A
:1057700025208DF8000000208DF8020001208DF812
:1057800003006846FFF7DEF801BD38B5040040F2BB
:1057900025512068FDF7A9FE00281DD02068FDF7DF
:1057A000D9FD0500A068E18A4554E08A401CE082EA
:1057B000E18980B2884201D30020E082608BE189D8
:1057C000884202D2608B401C6083606A002803D04C
:1057D0002800C0B2616A884740F227712068FDF74F
:1057E00084FE002823D0A08A00280CD1002240F299
:1057F00027712068FDF7E3FC012240F22661206852
:10580000FDF7DDFC3CE06068618A415C89B220689C
:10581000FDF77BFD608A401C6082A18980B28842CE
:1058200001D300206082A08A401EA08228E040F2BE
:1058300026612068FDF759FE002821D0A08A0028A3
:105840000BD1002240F226612068FDF7B8FC206AE7
:10585000002815D0206A804712E06068618A415CA8
:1058600089B22068FDF751FD608A401C6082A189E1
:1058700080B2884201D300206082A08A401EA082AC
:1058800031BD10B5FCF7F4FF0400FCF7C9F92000A6
:10589000FCF7F2FF0B48FFF778FFFCF7D3F910BDD8
:1058A00038B504000D002100C9B289B20648FDF7E1
:1058B0002CFD40210448FDF775FD0028F9D020009B
:1058C00032BD0000F0290020003801407C1B002080
:1058D0007C1F00200008014072B6704762B6704716
:1058E000EFF3108072B6704780F31088704730BFB6
:1058F000704720BF7047B0FA80F0704790FAA0F070
:10590000B0FA80F0704790FAA0F0704738B5040004
:105910000D002A000021200000F001F831BDF0B593
:1059200000255FF0000EBEF1040F06D22D020B0021
:10593000DBB21D431EF1010EF5E7130010F0030466
:105940000700002C0BD0A646002B08D0BEF1040F98
:1059500005D239707F1C5B1E1EF1010EF4E73E007C
:10596000042B03D33560361D1B1FF9E7B446002B0B
:1059700005D08CF800101CF1010C5B1EF7E7F0BDA0
:1059800010B5FFF71FFC04000A48006850F0807053
:10599000084908600020084908600848006850F07D
:1059A0000100064908602000FFF73AFC10BD0248DC
:1059B00000687047FCED00E0041000E0001000E01B
:1059C00000002110422063308440A550C660E7707B
:1059D000088129914AA16BB18CC1ADD1CEE1EFF123
:1059E0003112100273325222B5529442F772D662CB
:1059F000399318837BB35AA3BDD39CC3FFF3DEE373
:105A00006224433420040114E664C774A44485541A
:105A10006AA54BB528850995EEE5CFF5ACC58DD5C2
:105A20005336722611163006D776F6669556B4466A
:105A30005BB77AA719973887DFF7FEE79DD7BCC712
:105A4000C448E5588668A7784008611802282338BA
:105A5000CCC9EDD98EE9AFF9488969990AA92BB962
:105A6000F55AD44AB77A966A711A500A333A122A0A
:105A7000FDDBDCCBBFFB9EEB799B588B3BBB1AABB2
:105A8000A66C877CE44CC55C222C033C600C411C5A
:105A9000AEED8FFDECCDCDDD2AAD0BBD688D499D02
:105AA000977EB66ED55EF44E133E322E511E700EAA
:105AB0009FFFBEEFDDDFFCCF1BBF3AAF599F788F52
:105AC0008891A981CAB1EBA10CD12DC14EF16FE132
:105AD0008010A100C230E32004502540467067606A
